:020000040800F2
:1000000000000220E1020008250300082503000883
:100010002503000825030008250300080000000050
:1000200000000000000000000000000025030008A0
:100030002503000800000000250300082503000830
:1000400025030008250300082503000825030008F0
:1000500025030008250300082503000825030008E0
:1000600025030008250300082503000825030008D0
:1000700025030008250300082503000825030008C0
:1000800025030008250300082503000825030008B0
:1000900025030008250300082503000825030008A0
:1000A0002503000825030008250300082503000890
:1000B0002503000825030008250300082503000880
:1000C0002503000825030008250300082503000870
:1000D0002503000825030008250300082503000860
:1000E0002503000825030008250300082503000850
:1000F0002503000825030008250300082503000840
:10010000250300082503000825030008250300082F
:10011000250300082503000825030008250300081F
:10012000250300082503000825030008250300080F
:1001300025030008250300082503000825030008FF
:1001400025030008250300082503000825030008EF
:1001500025030008250300082503000825030008DF
:1001600025030008250300082503000825030008CF
:1001700025030008250300082503000825030008BF
:08018000250300082503000817
:1001880010B5054C237833B9044B13B10448AFF3C9
:1001980000800123237010BD000000200000000033
:1001A8002803000808B5034B1BB103490348AFF304
:1001B800008008BD0000000004000020280300089B
:1001C800FEE7000082B00023019300932A4A1368D7
:1001D80043F480331360284B1B6803F40033009307
:1001E800019B01330193009B1BB9019BB3F5A04F01
:1001F800F1D1214B1B6813F4003F06D00123009373
:10020800009B012B04D002B0704700230093F7E74E
:10021800194B1A6C42F080521A6418490A6842F461
:1002280040420A609A689A609A6842F400429A606A
:100238009A6842F4A0529A60114A5A601A6842F0C9
:1002480080721A600C4B1B6813F0007FFAD00D4BBC
:1002580040F205721A60A3F580639A6822F00302DF
:100268009A609A6842F002029A60034B9B6803F016
:100278000C03082BF9D1C6E7003802400070004093
:1002880019544007003C024010B5104CD4F888308F
:1002980043F47003C4F888300D4B1A6842F0010229
:1002A8001A60002199601A6822F0847222F4803260
:1002B8001A60084A5A601A6822F480221A60D960C3
:1002C800FFF780FF4FF00063A36010BD00ED00E072
:1002D8000038024010300024002103E00A4B5B582C
:1002E8004350043109480A4B42189A42F6D3094A46
:1002F80002E0002342F8043B074B9A42F9D3FFF788
:10030800C3FFFFF75DFF70474803000800000020A7
:1003180000000020000000201C000020FEE7000074
:10032800F8B500BFF8BC08BC9E467047F8B500BFDA
:08033800F8BC08BC9E467047AA
:04034000AD01000803
:040344008901000823
:04000005080002E10C
:00000001FF
